:100000000C9434000C9451000C9451000C94510049
:100010000C9451000C9486020C9451000C945100E5
:100020000C9451000C9435020C9451000C94D7019F
:100030000C9451000C9451000C94C2020C94510089
:100040000C9451000C9451000C9451000C945100EC
:100050000C945100320447045C04710486049B0430
:10006000B004C504DA04EF0411241FBECFE5D8E0C4
:10007000DEBFCDBF10E0A0E6B0E0E8E1FEE002C0E8
:1000800005900D92A236B107D9F720E0A2E6B0E0C4
:1000900001C01D92A938B207E1F70E94B5050C9482
:1000A0000A070C9400004130C1F5813091F028F02E
:1000B0008230D9F0833029F16EC081E090E002C037
:1000C000880F991F6A95E2F79AB3892B8ABB80E063
:1000D000089581E090E002C0880F991F6A95E2F7C9
:1000E00097B3892B87BB80E0089581E090E002C040
:1000F000880F991F6A95E2F794B3892B84BB80E03F
:10010000089581E090E002C0880F991F6A95E2F798
:1001100091B3892B81BB80E0089541113EC08130AD
:1001200099F028F08230E9F0833041F138C081E065
:1001300090E002C0880F991F6A95E2F780959AB304
:1001400089238ABB80E0089581E090E002C0880F97
:10015000991F6A95E2F7809597B3892387BB80E062
:10016000089581E090E002C0880F991F6A95E2F738
:10017000809594B3892384BB80E0089581E090E06A
:1001800002C0880F991F6A95E2F7809591B3892381
:1001900081BB80E0089581E0089581E0089581E0C9
:1001A00008954130C1F5813091F028F08230D9F0C6
:1001B000833029F16EC081E090E002C0880F991F62
:1001C0006A95E2F79BB3892B8BBB80E0089581E0B1
:1001D00090E002C0880F991F6A95E2F798B3892BC7
:1001E00088BB80E0089581E090E002C0880F991FED
:1001F0006A95E2F795B3892B85BB80E0089581E08D
:1002000090E002C0880F991F6A95E2F792B3892B9C
:1002100082BB80E0089541113EC0813099F028F002
:100220008230E9F0833041F138C081E090E002C0D3
:10023000880F991F6A95E2F780959BB389238BBB42
:1002400080E0089581E090E002C0880F991F6A95D0
:10025000E2F7809598B3892388BB80E0089581E018
:1002600090E002C0880F991F6A95E2F7809595B3D8
:10027000892385BB80E0089581E090E002C0880F6B
:10028000991F6A95E2F7809592B3892382BB80E03B
:10029000089581E0089581E0089581E00895813016
:1002A00091F028F08230D9F0833029F130C089B341
:1002B00090E002C0959587956A95E2F78170FA0102
:1002C000808380E0089586B390E002C0959587957D
:1002D0006A95E2F78170FA01808380E0089583B324
:1002E00090E002C0959587956A95E2F78170FA01D2
:1002F000808380E0089580B390E002C09595879553
:100300006A95E2F78170FA01808380E0089581E0C8
:1003100008958FB780688FBF089587B1806487B9CB
:1003200087B1806887B987B1806287B986B18460F8
:1003300086B986B1826086B986B1816086B986B198
:10034000806886B9089597B1907E97B997B1892B47
:1003500087B986B1806486B9349BFECF86B180614F
:1003600086B985B1089583B7877F83BF83B78F7BB5
:1003700083BF89B7816089BF089582BF83B78160D9
:1003800083BF83B78D7F83BF83B78B7F83BF089580
:1003900083B78E7F83BF83B78D7F83BF83B78B7F08
:1003A00083BF089590937C0080937B0008951F92F3
:1003B0000F920FB60F9211242F933F934F935F9399
:1003C0006F937F938F939F93AF93BF93EF93FF931D
:1003D000E0917B00F0917C000995FF91EF91BF9136
:1003E000AF919F918F917F916F915F914F913F91CD
:1003F0002F910F900FBE0F901F9018958FB58F7E85
:100400008FBD8FB58F7D8FBD8FB58F7B8FBD8FB526
:100410008F778FBD8FB58E7F8FBD8FB58D7F8FBD51
:100420008EB5877F8EBD8EB58F7E8EBD89B7846079
:1004300089BF08959DBD8CBD8EB581608EBD8EB582
:100440008D7F8EBD8EB58B7F8EBD08958EB58E7FD0
:100450008EBD8EB58D7F8EBD8EB58B7F8EBD089582
:10046000909378008093770008951F920F920FB6B3
:100470000F9211242F933F934F935F936F937F932A
:100480008F939F93AF93BF93EF93FF93E091770088
:10049000F09178000995FF91EF91BF91AF919F91F5
:1004A0008F917F916F915F914F913F912F910F901D
:1004B0000FBE0F901F90189585B5877F85BD85B5B8
:1004C0008F7B85BD85B58F7E85BD85B58F7D85BDCF
:1004D00089B7806489BF089584BD85B5816085BD75
:1004E00085B58D7F85BD85B58B7F85BD089585B527
:1004F0008E7F85BD85B58D7F85BD85B58B7F85BD9F
:10050000089590937A008093790008951F920F9236
:100510000FB60F9211242F933F934F935F936F93D6
:100520007F938F939F93AF93BF93EF93FF93E0914C
:100530007900F0917A000995FF91EF91BF91AF9109
:100540009F918F917F916F915F914F913F912F91EB
:100550000F900FBE0F901F901895E199FECF9FBB93
:100560008EBB6DBB8CB384608CBB8CB382608CBB48
:100570000895E199FECF9FBB8EBB8CB381608CBB8D
:100580008DB308951F920F920FB60F9211242F93DF
:100590003F934F935F936F937F938F939F93AF930B
:1005A000BF93EF93FF93E0917D00F0917E0009955A
:1005B000FF91EF91BF91AF919F918F917F916F913B
:1005C0005F914F913F912F910F900FBE0F901F9011
:1005D000189541E064E083E00E94530041E065E04B
:1005E00083E00E94530041E063E082E00E945300F8
:1005F00041E064E082E00E94530041E065E082E077
:100600000E94530041E066E082E00E94530008959A
:1006100041E064E083E00E94D10041E065E083E0D6
:100620000E94D10041E063E082E00E94D10040E0FE
:1006300064E082E00E94D100089540E064E083E03D
:100640000E94D10040E065E083E00E94D10008955F
:100650000E94310308950E943C0308950E944203C2
:10066000089541E062E080E00E94530040E062E0D3
:1006700080E00E94D100089541E062E080E00E94A5
:10068000D100089540E062E080E00E94D10008952A
:1006900040E066E083E00E94530041E066E083E0D2
:1006A0000E94D10040E062E083E00E94530041E0FC
:1006B00062E083E00E94D10040E060E081E00E94BF
:1006C000530041E060E081E00E94D100089540E6DF
:1006D00050E066E083E00E944F018091600081302D
:1006E00041F080E0089540E650E066E083E00E943B
:1006F0004F01809160008130B1F381E0089540E6C0
:1007000050E062E083E00E944F0180916000813000
:1007100041F080E0089540E650E062E083E00E940E
:100720004F01809160008130B1F381E0089540E68F
:1007300050E060E081E00E944F01809160008130D4
:1007400041F080E0089540E650E060E081E00E94E2
:100750004F01809160008130B1F381E0089541E064
:1007600062E082E00E94530041E067E082E00E9484
:10077000530041E063E083E00E94530040E062E008
:1007800082E00E94D10040E067E082E00E94D10058
:1007900040E063E083E00E94D1000895813051F091
:1007A00018F0823069F0089541E062E082E00E9432
:1007B000D100089541E067E082E00E94D1000895F1
:1007C00041E063E083E00E94D1000895813051F060
:1007D00018F0823069F0089540E062E082E00E9403
:1007E000D100089540E067E082E00E94D1000895C2
:1007F00040E063E083E00E94D100089540E062E0C1
:1008000081E00E94D10040E061E081E00E94D100DF
:10081000089541E062E081E00E94530041E061E020
:1008200081E00E94530041E064E080E00E945300B8
:1008300041E065E080E00E94530041E066E080E036
:100840000E94530041E067E080E00E945300089559
:1008500090E08A30910508F0D6C0FC01E65DFF4FBC
:100860000C94F50640E067E080E00E94D10040E093
:1008700066E080E00E94D10040E065E080E00E94F8
:10088000D10040E064E080E00E94D100089540E0A3
:1008900067E080E00E94D10040E066E080E00E94D6
:1008A000D10040E065E080E00E94D10041E064E0DA
:1008B00080E00E94D100089540E067E080E00E945F
:1008C000D10040E066E080E00E94D10041E065E0B8
:1008D00080E00E94D10040E064E080E00E94D1000E
:1008E000089540E067E080E00E94D10040E066E0CB
:1008F00080E00E94D10041E065E080E00E94D100EC
:1009000041E064E080E00E94D100089540E067E0AB
:1009100080E00E94D10041E066E080E00E94D100CA
:1009200040E065E080E00E94D10040E064E080E0CB
:100930000E94D100089540E067E080E00E94D1006D
:1009400041E066E080E00E94D10040E065E080E0A8
:100950000E94D10041E064E080E00E94D10008954F
:1009600040E067E080E00E94D10041E066E080E086
:100970000E94D10041E065E080E00E94D10040E0AB
:1009800064E080E00E94D100089540E067E080E0EC
:100990000E94D10041E066E080E00E94D10041E089
:1009A00065E080E00E94D10041E064E080E00E94C8
:1009B000D100089541E067E080E00E94D10040E06E
:1009C00066E080E00E94D10040E065E080E00E94A7
:1009D000D10040E064E080E00E94D100089541E051
:1009E00067E080E00E94D10040E066E080E00E9485
:1009F000D10040E065E080E00E94D10041E064E089
:100A000080E00E94D1000895CF939DEC899F912DA5
:100A10001124C92FC695C695C695CC0F2C2F220F31
:100A2000220FC20F8C1BC82F892F8695869586951D
:100A30000E94280441E062E081E00E94D10040E091
:100A400061E081E00E94D1008FE39FE10197F1F71F
:100A500000C000008C2F0E94280440E062E081E08A
:100A60000E94D10041E061E081E00E94D1008FE36B
:100A70009FE10197F1F700C000000E94FE03CF91B3
:100A8000089540E061E080E00E945300089581E015
:100A90000E94A3018055089580916E0090916F008F
:100AA000A0917000B09171000196A11DB11D8093BD
:100AB0006E0090936F00A0937000B0937100893A1C
:100AC0009440A105B10578F00E94260210926E00B4
:100AD00010926F00109270001092710010926400DA
:100AE00081E080936300089580916A0090916B008B
:100AF000A0916C00B0916D000196A11DB11D809375
:100B00006A0090936B00A0936C00B0936D008C36DC
:100B10009E4EA105B10588F081E09091620091118F
:100B200080E08093620010926A0010926B00109235
:100B30006C0010926D000E94770208950E94E902F5
:100B40000E9428030E9409040E9448030E94AF03E8
:100B50000E9441050E948D010E94B3010E94FE0186
:100B60000E945C020E94890108950E949E0582ED08
:100B700096E00E94D2018CE495E00E94300284E766
:100B800095E00E94810284E090E00E94B9029DED10
:100B9000980F993220F480936100C1E007C0609102
:100BA000610084E090E00E94AD02F7CFCC2309F110
:100BB0000E94FE030E942E030E941D0381E00E94FA
:100BC000E6030E949703882389F381E0C11180E046
:100BD000C82F1092640081E0809363000E942B0371
:100BE0000E944705809376008CE790E00E94BD014B
:100BF000DDCF80916300882329F0809176000E94E8
:100C0000040510C080916400882361F088ED90E0B5
:100C10000E946C0280916200882321F08091610023
:100C20000E9404050E9467038823E1F081E080931D
:100C300064001092630010926E0010926F00109288
:100C400070001092710088E398EE0E941A02609181
:100C50006100643238F065506093610084E090E098
:100C60000E94AD020E947F038823E1F081E080931F
:100C700064001092630010926E0010926F00109248
:100C800070001092710088E398EE0E941A02609141
:100C900061006B3438F46B5F6093610084E090E036
:100CA0000E94AD020E949703882351F081E0C11198
:100CB00080E0C82F0E94C8010E9426020E9477028D
:100CC0008091610090E00597209165003091660069
:100CD0002817390798F488ED90E00E946C02809103
:100CE0006200882321F081E00E94CE0303C081E0EE
:100CF0000E94E6030E942B030E941D038091610065
:100D000090E0059620916500309166008217930768
:100D100008F04CCF0E94770281E00E94CE030E942F
:100D200008030E942E0342CF0E944705809376005D
:100D300090916900E92FF0E0E158FF4F808381E056
:100D4000890F809369008A3061F51092690080E014
:100D500010C0E82FF0E0E158FF4F9081209167002C
:100D600030916800290F311D30936800209367008F
:100D70008F5F8A3070F32091670030916800ADEC8E
:100D8000BCEC0E94FB06969587959695879596955F
:100D9000879590936600809365001092680010928A
:100DA000670008958091720090917300A091740083
:100DB000B09175000196A11DB11D809372009093B2
:100DC0007300A0937400B0937500883D9741A1050E
:100DD000B10550F00E9494061092720010927300B8
:100DE00010927400109275000895EE0FFF1F059089
:100DF000F491E02D0994A29FB001B39FC001A39F7D
:100E0000700D811D1124911DB29F700D811D112443
:080E1000911D0895F894FFCF35
:020E1800013C9B
:00000001FF
